:100000000C945D000C947A000C947A000C947A00A5
:100010000C947A000C947A000C947A000C947A0078
:100020000C947A000C947A000C947A000C947A0068
:100030000C947A000C947A000C947A000C947A0058
:100040000C94CE010C947A000C947A000C947A00F3
:100050000C947A000C947A000C947A000C947A0038
:100060000C947A000C947A00000000080002010051
:100070000003040700000000000000000000000072
:10008000250028002B0000000000240027002A0083
:10009000040404040404040402020202020203032E
:1000A0000303030301020408102040800102040836
:1000B0001020010204081020D00211241FBECFEF2F
:1000C000D8E0DEBFCDBF21E0A0E0B1E001C01D92CD
:1000D000A531B207E1F710E0CDE5D0E004C02197EB
:1000E000FE010E94ED02CC35D107C9F70E9418022B
:1000F0000C94F3020C94000090E0FC01EC55FF4FCF
:100100002491FC01E057FF4F8491882399F090E0FF
:10011000880F991FFC01EA57FF4FA591B491FC018C
:10012000E458FF4F859194918FB7F894EC91E22BAE
:10013000EC938FBF089590E0FC01E859FF4F349194
:10014000FC01EC55FF4F2491FC01E057FF4FE49177
:10015000EE2309F43BC0332339F1333091F038F406
:100160003130A9F0323001F584B58F7D12C03730BF
:1001700091F03830A1F03430B9F4809180008F7D57
:1001800003C0809180008F77809380000DC084B57C
:100190008F7784BD09C08091B0008F7703C08091B4
:1001A000B0008F7D8093B000F0E0EE0FFF1FE458A9
:1001B000FF4FA591B4918FB7F894EC91611103C0F2
:1001C00020952E2301C02E2B2C938FBF08953FB76F
:1001D000F8948091050190910601A0910701B091DA
:1001E000080126B5A89B05C02F3F19F00196A11D57
:1001F000B11D3FBFBA2FA92F982F8827820F911DBD
:10020000A11DB11DBC01CD0142E0660F771F881F03
:10021000991F4A95D1F708958F929F92AF92BF92FE
:10022000CF92DF92EF92FF920E94E7004B015C01B8
:100230008AEFC82ED12CE12CF12C0E94E700DC01C2
:10024000CB0188199909AA09BB09883E9340A105E9
:10025000B10558F021E0C21AD108E108F10888EE92
:10026000880E83E0981EA11CB11CC114D104E104C6
:10027000F10419F7FF90EF90DF90CF90BF90AF900F
:100280009F908F90089560E086E00C949B00EF9221
:10029000FF920F931F93CF93DF938C017B01EA01B1
:1002A00061E086E00E949B00E114F10439F461E012
:1002B000F80180810E949B0060E009C0EA94EF2869
:1002C00051F460E0F80180810E949B0061E0F80138
:1002D00082810E949B00F80104811581802F0E9479
:1002E0007C00209709F447C0CF3FD10509F445C0F1
:1002F000F801FF27E859FF4FE491E330F9F048F4A3
:10030000E130B9F0E230A1F584B5806284BDC8BDAA
:100310003EC0E730E9F0E83019F1E43049F580916A
:100320008000806280938000D0938B00C0938A000D
:100330002EC084B5806884BDC7BD29C0809180006F
:10034000806880938000D0938900C09388001FC08C
:100350008091B00080688093B000C093B30017C054
:100360008091B00080628093B000C093B4000FC051
:10037000C038D10514F460E001C061E0802FDF9146
:10038000CF911F910F91FF90EF900C949B00DF9104
:10039000CF911F910F91FF90EF9008951F920F92B0
:1003A0000FB60F9211242F933F938F939F93AF9388
:1003B000BF938091010190910201A0910301B0913E
:1003C00004013091000123E0230F2D3720F4019622
:1003D000A11DB11D05C026E8230F0296A11DB11D68
:1003E000209300018093010190930201A0930301E7
:1003F000B09304018091050190910601A09107013D
:10040000B09108010196A11DB11D80930501909343
:100410000601A0930701B0930801BF91AF919F918E
:100420008F913F912F910F900FBE0F901F901895B5
:10043000789484B5826084BD84B5816084BD85B5BF
:10044000826085BD85B5816085BD80916E008160CB
:1004500080936E0010928100809181008260809371
:100460008100809181008160809381008091800073
:100470008160809380008091B10084608093B1009E
:100480008091B00081608093B00080917A00846098
:1004900080937A0080917A00826080937A008091C4
:1004A0007A00816080937A0080917A0080688093DE
:1004B0007A001092C10086E00E947C0087E00E94D2
:1004C0007C0088E00E947C0089E00E947C008AE039
:1004D0000E947C008BE00E947C008CE00E947C00EB
:1004E000C0E0D0E040E850E060E070E08FE091E0F4
:1004F0000E94470140E850E060E070E089E091E050
:100500000E9447010E940C010E9443010E940C01BD
:1005100040E850E061E070E08FE091E00E94470128
:1005200040E850E061E070E089E091E00E9447011E
:100530000E940C010E9443010E940C014FEF50E009
:1005400060E070E08FE091E00E9447014FEF50E0E3
:1005500060E070E089E091E00E9447010E940C0198
:100560000E9443010E940C014FEF50E061E070E0F7
:100570008FE091E00E9447014FEF50E061E070E0B2
:1005800089E091E00E9447010E940C010E94430112
:100590000E940C01209709F4A5CF0E940000A2CF71
:1005A000EFE0F1E088E090E09183808389E090E0E3
:1005B0009383828387E090E095838483E9E0F1E090
:1005C0008BE090E0918380838CE090E09383828342
:1005D0008AE090E0958384830895EE0FFF1F0590D5
:0A05E000F491E02D0994F894FFCF88
:00000001FF
