:100000000C945D000C9485000C9485000C94850084
:100010000C9485000C9485000C9485000C9485004C
:100020000C9485000C9485000C9485000C9485003C
:100030000C9485000C9485000C9485000C9485002C
:100040000C9496030C9485000C9464030C943E036A
:100050000C9485000C9485000C9485000C9485000C
:100060000C9485000C94850000000008000201003B
:100070000003040700000000000000000000000072
:10008000250028002B0000000000240027002A0083
:10009000040404040404040402020202020203032E
:1000A0000303030301020408102040800102040836
:1000B0001020010204081020E00311241FBECFEF1E
:1000C000D8E0DEBFCDBF11E0A0E0B1E0E4E2FBE0AC
:1000D00002C005900D92AC31B107D9F721E0ACE137
:1000E000B1E001C01D92A83DB207E1F710E0CDE5F7
:1000F000D0E004C02197FE010E948505CC35D107D0
:10010000C9F70E941E040C9490050C94000090E026
:10011000FC01EC55FF4F2491FC01E057FF4F849107
:10012000882399F090E0880F991FFC01EA57FF4F50
:10013000A591B491FC01E458FF4F859194918FB73C
:10014000F894EC91E22BEC938FBF0895CF92DF925D
:10015000EF92FF920F931F93CF93DF936C017A017D
:100160008B01C0E0D0E0CE15DF0589F0D8016D919C
:100170008D01D601ED91FC910190F081E02DC60139
:100180000995892B11F47E0102C02196ECCFC7019D
:10019000DF91CF911F910F91FF90EF90DF90CF9063
:1001A0000895FC01918D828D981761F0828DDF0199
:1001B000A80FB11D5D968C91928D9F5F9F73928F5A
:1001C00090E008958FEF9FEF0895FC01918D828D4F
:1001D000981731F0828DE80FF11D858D90E008951C
:1001E0008FEF9FEF0895FC01918D228D892F90E074
:1001F000805C9F4F821B91098F739927089581E33B
:1002000091E00E94F30021E0892B09F420E0822F85
:100210000895FC01848DDF01A80FB11DA35ABF4FC3
:100220002C91848D90E001968F739927848FA689F5
:10023000B7892C93A089B1898C9180648C93938D1C
:10024000848D981306C00288F389E02D80818F7D0C
:1002500080830895EF92FF920F931F93CF93DF93C4
:10026000EC0181E0888F9B8D8C8D981305C0E88907
:10027000F989808185FD24C0F62E0B8D10E00F5F7B
:100280001F4F0F731127E02E8C8DE8120CC00FB694
:1002900007FCFACFE889F989808185FFF5CFCE0187
:1002A0000E940901F1CF8B8DFE01E80FF11DE35A89
:1002B000FF4FF0820B8FEA89FB898081806207C043
:1002C000EE89FF896083E889F98980818064808371
:1002D00081E090E0DF91CF911F910F91FF90EF901F
:1002E0000895CF93DF93EC01888D8823C9F0EA89C4
:1002F000FB89808185FD05C0A889B9898C9186FD1F
:100300000FC00FB607FCF5CF808185FFF2CFA8891B
:10031000B9898C9185FFEDCFCE010E940901E7CF0D
:10032000DF91CF91089580E090E0892B29F00E9421
:10033000FF0081110C940000089590E0FC01E85941
:10034000FF4F3491FC01EC55FF4F2491FC01E05725
:10035000FF4FE491EE2309F43BC0332339F13330EE
:1003600091F038F43130A9F0323001F584B58F7D49
:1003700012C0373091F03830A1F03430B9F48091A8
:1003800080008F7D03C0809180008F7780938000F4
:100390000DC084B58F7784BD09C08091B0008F7780
:1003A00003C08091B0008F7D8093B000F0E0EE0F2D
:1003B000FF1FE458FF4FA591B4918FB7F894EC91CB
:1003C000611103C020952E2301C02E2B2C938FBFCB
:1003D00008953FB7F8948091210190912201A09156
:1003E0002301B091240126B5A89B05C02F3F19F029
:1003F0000196A11DB11D3FBFBA2FA92F982F8827A5
:10040000820F911DA11DB11DBC01CD0142E0660FFF
:10041000771F881F991F4A95D1F70895EF92FF9291
:100420000F931F93CF93DF9300D01F92CDB7DEB70A
:100430007C018A0186E029836A837B830E9487008E
:100440006A81F70160837B81718313830283298131
:100450002483862F0E948700F70182810E948700F3
:10046000F70184810F900F900F90DF91CF911F9132
:100470000F91FF90EF900C948700009769F0FC01BA
:1004800001900020E9F73197AF01481B590BBC01DF
:1004900081E391E00C94A60080E090E008958F92B3
:1004A0009F92AF92BF920F931F93CF93DF93CDB7DD
:1004B000DEB7A1970FB6F894DEBF0FBECDBF19A26D
:1004C000423008F44AE08E010F5D1F4F842E912CBC
:1004D000A12CB12CA50194010E946305E62FB9015E
:1004E000CA0101501109EA3014F4E05D01C0E95C71
:1004F000D801EC93232B242B252B61F7C8010E94F4
:100500003D02A1960FB6F894DEBF0FBECDBFDF91BE
:10051000CF911F910F91BF90AF909F908F900895B2
:10052000CF92DF92EF92FF92CF93DF936B017C012A
:10053000E0913101F09132010190F081E02D6DE206
:1005400081E391E00995EC0166277727CB016C19CF
:100550007D098E099F094AE00E944F028C0F9D1F62
:10056000DF91CF91FF90EF90DF90CF900895BC0185
:10057000990F880B990B97FD0C9490024AE00C940C
:100580004F02EF92FF920F931F93CF93DF937C0163
:10059000D62F61E086E00E949D0161E0F701808135
:1005A0000E949D0160E0F70182810E949D010D2F54
:1005B00010E0F701C4818C2F0E94870001151105FE
:1005C00009F447C00F3F110509F445C0EC2FF0E0D6
:1005D000E859FF4FE491E330F9F048F4E130B9F025
:1005E000E230A1F584B5806284BDD8BD3EC0E7305D
:1005F000E9F0E83019F1E43049F58091800080623B
:100600008093800010938B0000938A002EC084B5E5
:10061000806884BDD7BD29C08091800080688093A8
:10062000800010938900009388001FC08091B00063
:1006300080688093B000D093B30017C08091B00061
:1006400080628093B000D093B4000FC000381105D1
:1006500014F460E001C061E08C2FDF91CF911F9115
:100660000F91FF90EF900C949D01DF91CF911F911E
:100670000F91FF90EF9008950E948B051F920F92AB
:100680000FB60F9211242F933F934F935F936F9365
:100690007F938F939F93AF93BF93EF93FF9381E3E8
:1006A00091E00E940901FF91EF91BF91AF919F915D
:1006B0008F917F916F915F914F913F912F910F900B
:1006C0000FBE0F901F9018951F920F920FB60F92AA
:1006D00011242F938F939F93EF93FF93E091410108
:1006E000F09142018081E0914701F091480182FD43
:1006F00012C0908180914A018F5F8F7320914B01CE
:10070000821751F0E0914A01F0E0EF5CFE4F958FC7
:1007100080934A0101C08081FF91EF919F918F9159
:100720002F910F900FBE0F901F9018951F920F9250
:100730000FB60F9211242F933F938F939F93AF93F4
:10074000BF9380911D0190911E01A0911F01B09156
:10075000200130911C0123E0230F2D3720F4019656
:10076000A11DB11D05C026E8230F0296A11DB11DD4
:1007700020931C0180931D0190931E01A0931F01E3
:10078000B09320018091210190912201A091230139
:10079000B09124010196A11DB11D80932101909378
:1007A0002201A0932301B0932401BF91AF919F91A7
:1007B0008F913F912F910F900FBE0F901F90189522
:1007C000E1E3F1E01382128288EE93E0A0E0B0E072
:1007D00084839583A683B78384E091E091838083AB
:1007E00085EC90E09587848784EC90E097878687F6
:1007F00080EC90E0918B808B81EC90E0938B828BEE
:1008000082EC90E0958B848B86EC90E0978B868BC6
:10081000118E128E138E148E29E047E050E068E0AE
:1008200070E083ED91E00E940E022AE04CE050E07F
:100830006CE070E08EEC91E00C940E02CF93DF93AD
:1008400000D000D01F92CDB7DEB7789484B5826017
:1008500084BD84B5816084BD85B5826085BD85B564
:10086000816085BD80916E00816080936E001092E2
:10087000810080918100826080938100809181005D
:1008800081608093810080918000816080938000EE
:100890008091B10084608093B1008091B00081604C
:1008A0008093B00080917A00846080937A00809178
:1008B0007A00826080937A0080917A0081608093D0
:1008C0007A0080917A00806880937A001092C1004B
:1008D00080912501811138C0E0914101F0914201E0
:1008E00082E08083E0913D01F0913E011082E09131
:1008F0003F01F091400180E1808310924901E09135
:100900004501F091460186E08083E0914301F0913A
:100910004401808180618083E0914301F091440132
:10092000808188608083E0914301F091440180815F
:1009300080688083E0914301F091440180818F7D44
:10094000808381E08093250129E047E050E068E062
:1009500070E0CE0101960E940E0285E0FE01319604
:10096000A3EDB1E001900D928A95E1F72AE04CE009
:1009700050E06CE070E0CE0101960E940E0285E02E
:10098000FE013196AEECB1E001900D928A95E1F74F
:1009900081E391E00E94F300892B09F491C081E387
:1009A00091E00E94D100009709F07FC0809127015B
:1009B000813009F085C0809126018530B9F18DE044
:1009C0000E94870010E001E0612F8DE00E949D01F0
:1009D00010270E94E9014B015C0188EEC82E83E0DC
:1009E000D82EE12CF12C0E94E901DC01CB01881901
:1009F0009909AA09BB09883E9340A105B10580F079
:100A000021E0C21AD108E108F10888EE880E83E0DF
:100A1000981EA11CB11CC114D104E104F10419F702
:100A2000C114D104E104F104F1F6CECF60912901A3
:100A300083ED91E00E94C10260912B018EEC91E068
:100A40000E94C10280E191E00E943D0281E090E0BD
:100A50000E94B70286E191E00E943D028091290147
:100A600090E00E94B70286E191E00E943D0281E0A1
:100A700090E00E94B70286E191E00E943D02609101
:100A80002B0170E080E090E04AE00E944F0288E194
:100A900091E00E943D0210922601E7E2F1E01192FE
:100AA00081E0E133F807D9F70BC090912601E92FD7
:100AB000F0E0E95DFE4F80839F5F9093260168CF51
:100AC0000E94930165CFA1E21A2EAA1BBB1BFD0158
:100AD0000DC0AA1FBB1FEE1FFF1FA217B307E4071D
:100AE000F50720F0A21BB30BE40BF50B661F771F75
:100AF000881F991F1A9469F7609570958095909555
:100B00009B01AC01BD01CF010895EE0FFF1F0590C1
:100B1000F491E02D099481E090E0F8940C94900514
:040B2000F894FFCF77
:100B2400000000002A01A600F300D100E5007101D5
:0C0B34004D6F746F723A20000D0A000033
:00000001FF
